{
  "_format": "hh-sol-artifact-1",
  "contractName": "CrowdFunding",
  "sourceName": "contracts/CrowdFunding.sol",
  "abi": [
    {
      "anonymous": false,
      "inputs": [
        {
          "indexed": false,
          "internalType": "uint256",
          "name": "id",
          "type": "uint256"
        }
      ],
      "name": "CampaignCompleted",
      "type": "event"
    },
    {
      "anonymous": false,
      "inputs": [
        {
          "indexed": false,
          "internalType": "uint256",
          "name": "id",
          "type": "uint256"
        },
        {
          "indexed": false,
          "internalType": "address",
          "name": "owner",
          "type": "address"
        },
        {
          "indexed": false,
          "internalType": "uint256",
          "name": "target",
          "type": "uint256"
        },
        {
          "indexed": false,
          "internalType": "uint256",
          "name": "deadline",
          "type": "uint256"
        }
      ],
      "name": "CampaignCreated",
      "type": "event"
    },
    {
      "anonymous": false,
      "inputs": [
        {
          "indexed": false,
          "internalType": "uint256",
          "name": "id",
          "type": "uint256"
        },
        {
          "indexed": false,
          "internalType": "address",
          "name": "donator",
          "type": "address"
        },
        {
          "indexed": false,
          "internalType": "uint256",
          "name": "amount",
          "type": "uint256"
        }
      ],
      "name": "DonationReceived",
      "type": "event"
    },
    {
      "anonymous": false,
      "inputs": [
        {
          "indexed": false,
          "internalType": "address",
          "name": "donator",
          "type": "address"
        },
        {
          "indexed": false,
          "internalType": "uint256",
          "name": "totalDonations",
          "type": "uint256"
        },
        {
          "indexed": false,
          "internalType": "uint256",
          "name": "rewardLevel",
          "type": "uint256"
        }
      ],
      "name": "RewardIssued",
      "type": "event"
    },
    {
      "inputs": [],
      "name": "BRONZE_THRESHOLD",
      "outputs": [
        {
          "internalType": "uint256",
          "name": "",
          "type": "uint256"
        }
      ],
      "stateMutability": "view",
      "type": "function"
    },
    {
      "inputs": [],
      "name": "GOLD_THRESHOLD",
      "outputs": [
        {
          "internalType": "uint256",
          "name": "",
          "type": "uint256"
        }
      ],
      "stateMutability": "view",
      "type": "function"
    },
    {
      "inputs": [],
      "name": "SILVER_THRESHOLD",
      "outputs": [
        {
          "internalType": "uint256",
          "name": "",
          "type": "uint256"
        }
      ],
      "stateMutability": "view",
      "type": "function"
    },
    {
      "inputs": [
        {
          "internalType": "uint256",
          "name": "",
          "type": "uint256"
        }
      ],
      "name": "campaigns",
      "outputs": [
        {
          "internalType": "address",
          "name": "owner",
          "type": "address"
        },
        {
          "internalType": "string",
          "name": "title",
          "type": "string"
        },
        {
          "internalType": "string",
          "name": "description",
          "type": "string"
        },
        {
          "internalType": "uint256",
          "name": "target",
          "type": "uint256"
        },
        {
          "internalType": "uint256",
          "name": "deadline",
          "type": "uint256"
        },
        {
          "internalType": "uint256",
          "name": "amountCollected",
          "type": "uint256"
        },
        {
          "internalType": "bool",
          "name": "completed",
          "type": "bool"
        }
      ],
      "stateMutability": "view",
      "type": "function"
    },
    {
      "inputs": [
        {
          "internalType": "address",
          "name": "_owner",
          "type": "address"
        },
        {
          "internalType": "string",
          "name": "_title",
          "type": "string"
        },
        {
          "internalType": "string",
          "name": "_description",
          "type": "string"
        },
        {
          "internalType": "uint256",
          "name": "_target",
          "type": "uint256"
        },
        {
          "internalType": "uint256",
          "name": "_deadline",
          "type": "uint256"
        }
      ],
      "name": "createCampaign",
      "outputs": [
        {
          "internalType": "uint256",
          "name": "",
          "type": "uint256"
        }
      ],
      "stateMutability": "nonpayable",
      "type": "function"
    },
    {
      "inputs": [
        {
          "internalType": "uint256",
          "name": "_id",
          "type": "uint256"
        }
      ],
      "name": "donateToCampaign",
      "outputs": [],
      "stateMutability": "payable",
      "type": "function"
    },
    {
      "inputs": [
        {
          "internalType": "address",
          "name": "",
          "type": "address"
        }
      ],
      "name": "donorRewards",
      "outputs": [
        {
          "internalType": "uint256",
          "name": "",
          "type": "uint256"
        }
      ],
      "stateMutability": "view",
      "type": "function"
    },
    {
      "inputs": [
        {
          "internalType": "address",
          "name": "",
          "type": "address"
        }
      ],
      "name": "donorTotalContributions",
      "outputs": [
        {
          "internalType": "uint256",
          "name": "",
          "type": "uint256"
        }
      ],
      "stateMutability": "view",
      "type": "function"
    },
    {
      "inputs": [],
      "name": "getCampaigns",
      "outputs": [
        {
          "components": [
            {
              "internalType": "address",
              "name": "owner",
              "type": "address"
            },
            {
              "internalType": "string",
              "name": "title",
              "type": "string"
            },
            {
              "internalType": "string",
              "name": "description",
              "type": "string"
            },
            {
              "internalType": "uint256",
              "name": "target",
              "type": "uint256"
            },
            {
              "internalType": "uint256",
              "name": "deadline",
              "type": "uint256"
            },
            {
              "internalType": "uint256",
              "name": "amountCollected",
              "type": "uint256"
            },
            {
              "internalType": "address[]",
              "name": "donators",
              "type": "address[]"
            },
            {
              "internalType": "uint256[]",
              "name": "donations",
              "type": "uint256[]"
            },
            {
              "internalType": "bool",
              "name": "completed",
              "type": "bool"
            }
          ],
          "internalType": "struct CrowdFunding.Campaign[]",
          "name": "",
          "type": "tuple[]"
        }
      ],
      "stateMutability": "view",
      "type": "function"
    },
    {
      "inputs": [
        {
          "internalType": "uint256",
          "name": "_id",
          "type": "uint256"
        }
      ],
      "name": "getDonators",
      "outputs": [
        {
          "internalType": "address[]",
          "name": "",
          "type": "address[]"
        },
        {
          "internalType": "uint256[]",
          "name": "",
          "type": "uint256[]"
        }
      ],
      "stateMutability": "view",
      "type": "function"
    },
    {
      "inputs": [],
      "name": "numberOfCampaigns",
      "outputs": [
        {
          "internalType": "uint256",
          "name": "",
          "type": "uint256"
        }
      ],
      "stateMutability": "view",
      "type": "function"
    },
    {
      "inputs": [
        {
          "internalType": "uint256",
          "name": "_id",
          "type": "uint256"
        }
      ],
      "name": "refundDonation",
      "outputs": [],
      "stateMutability": "nonpayable",
      "type": "function"
    },
    {
      "inputs": [
        {
          "internalType": "uint256",
          "name": "_id",
          "type": "uint256"
        },
        {
          "internalType": "string",
          "name": "_newTitle",
          "type": "string"
        },
        {
          "internalType": "string",
          "name": "_newDescription",
          "type": "string"
        }
      ],
      "name": "updateCampaign",
      "outputs": [],
      "stateMutability": "nonpayable",
      "type": "function"
    }
  ],
  "bytecode": "0x6080604052600060035534801561001557600080fd5b506125ab806100256000396000f3fe6080604052600436106100c25760003560e01c8063569739741161007f578063a6b0363311610059578063a6b0363314610274578063bc1da2101461029f578063c1a0db30146102dc578063dd84421e14610307576100c2565b806356973974146101f557806369a2f02614610220578063709cacc21461024b576100c2565b8063075843c3146100c757806307ca140d146101045780630fa91fa91461012f5780631026373f1461016d578063141961bc1461019657806342a4fda8146101d9575b600080fd5b3480156100d357600080fd5b506100ee60048036038101906100e991906114e8565b610344565b6040516100fb91906115aa565b60405180910390f35b34801561011057600080fd5b506101196104be565b60405161012691906115aa565b60405180910390f35b34801561013b57600080fd5b50610156600480360381019061015191906115c5565b6104c4565b60405161016492919061176e565b60405180910390f35b34801561017957600080fd5b50610194600480360381019061018f91906117a5565b6105d4565b005b3480156101a257600080fd5b506101bd60048036038101906101b891906115c5565b6106f0565b6040516101d097969594939291906118d9565b60405180910390f35b6101f360048036038101906101ee91906115c5565b61086f565b005b34801561020157600080fd5b5061020a610ba2565b60405161021791906115aa565b60405180910390f35b34801561022c57600080fd5b50610235610bae565b60405161024291906115aa565b60405180910390f35b34801561025757600080fd5b50610272600480360381019061026d91906115c5565b610bba565b005b34801561028057600080fd5b50610289610da3565b6040516102969190611c29565b60405180910390f35b3480156102ab57600080fd5b506102c660048036038101906102c19190611c4b565b611102565b6040516102d391906115aa565b60405180910390f35b3480156102e857600080fd5b506102f161111a565b6040516102fe91906115aa565b60405180910390f35b34801561031357600080fd5b5061032e60048036038101906103299190611c4b565b611126565b60405161033b91906115aa565b60405180910390f35b6000428211610388576040517f08c379a000000000000000000000000000000000000000000000000000000000815260040161037f90611cea565b60405180910390fd5b600080600060035481526020019081526020016000209050868160000160006101000a81548173ffffffffffffffffffffffffffffffffffffffff021916908373ffffffffffffffffffffffffffffffffffffffff160217905550858160010190816103f49190611f16565b50848160020190816104069190611f16565b508381600301819055508281600401819055506000816005018190555060008160080160006101000a81548160ff0219169083151502179055506003600081548092919061045390612017565b91905055507f91b289a829e71d811b8c69e4a24ba2d40d115d8a236e9a724cb3bb2d43cf72236001600354610488919061205f565b88868660405161049b9493929190612093565b60405180910390a160016003546104b2919061205f565b91505095945050505050565b60035481565b6060806000808481526020019081526020016000206006016000808581526020019081526020016000206007018180548060200260200160405190810160405280929190818152602001828054801561057257602002820191906000526020600020905b8160009054906101000a900473ffffffffffffffffffffffffffffffffffffffff1673ffffffffffffffffffffffffffffffffffffffff1681526020019060010190808311610528575b50505050509150808054806020026020016040519081016040528092919081815260200182805480156105c457602002820191906000526020600020905b8154815260200190600101908083116105b0575b5050505050905091509150915091565b600080600085815260200190815260200160002090508060000160009054906101000a900473ffffffffffffffffffffffffffffffffffffffff1673ffffffffffffffffffffffffffffffffffffffff163373ffffffffffffffffffffffffffffffffffffffff161461067c576040517f08c379a000000000000000000000000000000000000000000000000000000000815260040161067390612124565b60405180910390fd5b60008160070180549050146106c6576040517f08c379a00000000000000000000000000000000000000000000000000000000081526004016106bd90612190565b60405180910390fd5b828160010190816106d79190611f16565b50818160020190816106e99190611f16565b5050505050565b60006020528060005260406000206000915090508060000160009054906101000a900473ffffffffffffffffffffffffffffffffffffffff169080600101805461073990611d39565b80601f016020809104026020016040519081016040528092919081815260200182805461076590611d39565b80156107b25780601f10610787576101008083540402835291602001916107b2565b820191906000526020600020905b81548152906001019060200180831161079557829003601f168201915b5050505050908060020180546107c790611d39565b80601f01602080910402602001604051908101604052809291908181526020018280546107f390611d39565b80156108405780601f1061081557610100808354040283529160200191610840565b820191906000526020600020905b81548152906001019060200180831161082357829003601f168201915b5050505050908060030154908060040154908060050154908060080160009054906101000a900460ff16905087565b6000806000838152602001908152602001600020905080600401544211156108cc576040517f08c379a00000000000000000000000000000000000000000000000000000000081526004016108c3906121fc565b60405180910390fd5b8060080160009054906101000a900460ff161561091e576040517f08c379a000000000000000000000000000000000000000000000000000000000815260040161091590612268565b60405180910390fd5b600034905081600601339080600181540180825580915050600190039060005260206000200160009091909190916101000a81548173ffffffffffffffffffffffffffffffffffffffff021916908373ffffffffffffffffffffffffffffffffffffffff1602179055508160070181908060018154018082558091505060019003906000526020600020016000909190919091505580600160003373ffffffffffffffffffffffffffffffffffffffff1673ffffffffffffffffffffffffffffffffffffffff1681526020019081526020016000206000828254610a029190612288565b9250508190555060008260000160009054906101000a900473ffffffffffffffffffffffffffffffffffffffff1673ffffffffffffffffffffffffffffffffffffffff1682604051610a53906122ed565b60006040518083038185875af1925050503d8060008114610a90576040519150601f19603f3d011682016040523d82523d6000602084013e610a95565b606091505b5050905080610ad9576040517f08c379a0000000000000000000000000000000000000000000000000000000008152600401610ad090612374565b60405180910390fd5b81836005016000828254610aed9190612288565b925050819055507f0b5b4c52969ff7329ecf7ee536409fda87812b15a8622bc6e8cdeab3aee14a26843384604051610b2793929190612394565b60405180910390a1610b383361113e565b8260030154836005015410610b9c5760018360080160006101000a81548160ff0219169083151502179055507fbdef6a2e3aa892961a2dab48272f72f2bc1c7121eb1c0ed7e4a58e081c1e4be084604051610b9391906115aa565b60405180910390a15b50505050565b678ac7230489e8000081565b670de0b6b3a764000081565b6000806000838152602001908152602001600020905080600401544211610c16576040517f08c379a0000000000000000000000000000000000000000000000000000000008152600401610c0d90612417565b60405180910390fd5b8060030154816005015410610c60576040517f08c379a0000000000000000000000000000000000000000000000000000000008152600401610c5790612483565b60405180910390fd5b60005b8160060180549050811015610d9e576000826006018281548110610c8a57610c896124a3565b5b9060005260206000200160009054906101000a900473ffffffffffffffffffffffffffffffffffffffff1690506000836007018381548110610ccf57610cce6124a3565b5b9060005260206000200154905060008273ffffffffffffffffffffffffffffffffffffffff1682604051610d02906122ed565b60006040518083038185875af1925050503d8060008114610d3f576040519150601f19603f3d011682016040523d82523d6000602084013e610d44565b606091505b5050905080610d88576040517f08c379a0000000000000000000000000000000000000000000000000000000008152600401610d7f9061251e565b60405180910390fd5b5050508080610d9690612017565b915050610c63565b505050565b6060600060035467ffffffffffffffff811115610dc357610dc2611387565b5b604051908082528060200260200182016040528015610dfc57816020015b610de9611296565b815260200190600190039081610de15790505b50905060005b6003548110156110fa576000806000838152602001908152602001600020905080604051806101200160405290816000820160009054906101000a900473ffffffffffffffffffffffffffffffffffffffff1673ffffffffffffffffffffffffffffffffffffffff1673ffffffffffffffffffffffffffffffffffffffff168152602001600182018054610e9590611d39565b80601f0160208091040260200160405190810160405280929190818152602001828054610ec190611d39565b8015610f0e5780601f10610ee357610100808354040283529160200191610f0e565b820191906000526020600020905b815481529060010190602001808311610ef157829003601f168201915b50505050508152602001600282018054610f2790611d39565b80601f0160208091040260200160405190810160405280929190818152602001828054610f5390611d39565b8015610fa05780601f10610f7557610100808354040283529160200191610fa0565b820191906000526020600020905b815481529060010190602001808311610f8357829003601f168201915b505050505081526020016003820154815260200160048201548152602001600582015481526020016006820180548060200260200160405190810160405280929190818152602001828054801561104c57602002820191906000526020600020905b8160009054906101000a900473ffffffffffffffffffffffffffffffffffffffff1673ffffffffffffffffffffffffffffffffffffffff1681526020019060010190808311611002575b50505050508152602001600782018054806020026020016040519081016040528092919081815260200182805480156110a457602002820191906000526020600020905b815481526020019060010190808311611090575b505050505081526020016008820160009054906101000a900460ff1615151515815250508383815181106110db576110da6124a3565b5b60200260200101819052505080806110f290612017565b915050610e02565b508091505090565b60026020528060005260406000206000915090505481565b674563918244f4000081565b60016020528060005260406000206000915090505481565b6000600160008373ffffffffffffffffffffffffffffffffffffffff1673ffffffffffffffffffffffffffffffffffffffff1681526020019081526020016000205490506000678ac7230489e80000821061119c57600390506111ca565b674563918244f4000082106111b457600290506111c9565b670de0b6b3a764000082106111c857600190505b5b5b600260008473ffffffffffffffffffffffffffffffffffffffff1673ffffffffffffffffffffffffffffffffffffffff168152602001908152602001600020548111156112915780600260008573ffffffffffffffffffffffffffffffffffffffff1673ffffffffffffffffffffffffffffffffffffffff168152602001908152602001600020819055507fca46e5c2326c9eca7e0d946e330a087d659db7f4f04f0eb40ee3e62c7982019c8383836040516112889392919061253e565b60405180910390a15b505050565b604051806101200160405280600073ffffffffffffffffffffffffffffffffffffffff168152602001606081526020016060815260200160008152602001600081526020016000815260200160608152602001606081526020016000151581525090565b6000604051905090565b600080fd5b600080fd5b600073ffffffffffffffffffffffffffffffffffffffff82169050919050565b60006113398261130e565b9050919050565b6113498161132e565b811461135457600080fd5b50565b60008135905061136681611340565b92915050565b600080fd5b600080fd5b6000601f19601f8301169050919050565b7f4e487b7100000000000000000000000000000000000000000000000000000000600052604160045260246000fd5b6113bf82611376565b810181811067ffffffffffffffff821117156113de576113dd611387565b5b80604052505050565b60006113f16112fa565b90506113fd82826113b6565b919050565b600067ffffffffffffffff82111561141d5761141c611387565b5b61142682611376565b9050602081019050919050565b82818337600083830152505050565b600061145561145084611402565b6113e7565b90508281526020810184848401111561147157611470611371565b5b61147c848285611433565b509392505050565b600082601f8301126114995761149861136c565b5b81356114a9848260208601611442565b91505092915050565b6000819050919050565b6114c5816114b2565b81146114d057600080fd5b50565b6000813590506114e2816114bc565b92915050565b600080600080600060a0868803121561150457611503611304565b5b600061151288828901611357565b955050602086013567ffffffffffffffff81111561153357611532611309565b5b61153f88828901611484565b945050604086013567ffffffffffffffff8111156115605761155f611309565b5b61156c88828901611484565b935050606061157d888289016114d3565b925050608061158e888289016114d3565b9150509295509295909350565b6115a4816114b2565b82525050565b60006020820190506115bf600083018461159b565b92915050565b6000602082840312156115db576115da611304565b5b60006115e9848285016114d3565b91505092915050565b600081519050919050565b600082825260208201905092915050565b6000819050602082019050919050565b6116278161132e565b82525050565b6000611639838361161e565b60208301905092915050565b6000602082019050919050565b600061165d826115f2565b61166781856115fd565b93506116728361160e565b8060005b838110156116a357815161168a888261162d565b975061169583611645565b925050600181019050611676565b5085935050505092915050565b600081519050919050565b600082825260208201905092915050565b6000819050602082019050919050565b6116e5816114b2565b82525050565b60006116f783836116dc565b60208301905092915050565b6000602082019050919050565b600061171b826116b0565b61172581856116bb565b9350611730836116cc565b8060005b8381101561176157815161174888826116eb565b975061175383611703565b925050600181019050611734565b5085935050505092915050565b600060408201905081810360008301526117888185611652565b9050818103602083015261179c8184611710565b90509392505050565b6000806000606084860312156117be576117bd611304565b5b60006117cc868287016114d3565b935050602084013567ffffffffffffffff8111156117ed576117ec611309565b5b6117f986828701611484565b925050604084013567ffffffffffffffff81111561181a57611819611309565b5b61182686828701611484565b9150509250925092565b6118398161132e565b82525050565b600081519050919050565b600082825260208201905092915050565b60005b8381101561187957808201518184015260208101905061185e565b60008484015250505050565b60006118908261183f565b61189a818561184a565b93506118aa81856020860161185b565b6118b381611376565b840191505092915050565b60008115159050919050565b6118d3816118be565b82525050565b600060e0820190506118ee600083018a611830565b81810360208301526119008189611885565b905081810360408301526119148188611885565b9050611923606083018761159b565b611930608083018661159b565b61193d60a083018561159b565b61194a60c08301846118ca565b98975050505050505050565b600081519050919050565b600082825260208201905092915050565b6000819050602082019050919050565b600082825260208201905092915050565b600061199e8261183f565b6119a88185611982565b93506119b881856020860161185b565b6119c181611376565b840191505092915050565b600082825260208201905092915050565b60006119e8826115f2565b6119f281856119cc565b93506119fd8361160e565b8060005b83811015611a2e578151611a15888261162d565b9750611a2083611645565b925050600181019050611a01565b5085935050505092915050565b600082825260208201905092915050565b6000611a57826116b0565b611a618185611a3b565b9350611a6c836116cc565b8060005b83811015611a9d578151611a8488826116eb565b9750611a8f83611703565b925050600181019050611a70565b5085935050505092915050565b611ab3816118be565b82525050565b600061012083016000830151611ad2600086018261161e565b5060208301518482036020860152611aea8282611993565b91505060408301518482036040860152611b048282611993565b9150506060830151611b1960608601826116dc565b506080830151611b2c60808601826116dc565b5060a0830151611b3f60a08601826116dc565b5060c083015184820360c0860152611b5782826119dd565b91505060e083015184820360e0860152611b718282611a4c565b915050610100830151611b88610100860182611aaa565b508091505092915050565b6000611b9f8383611ab9565b905092915050565b6000602082019050919050565b6000611bbf82611956565b611bc98185611961565b935083602082028501611bdb85611972565b8060005b85811015611c175784840389528151611bf88582611b93565b9450611c0383611ba7565b925060208a01995050600181019050611bdf565b50829750879550505050505092915050565b60006020820190508181036000830152611c438184611bb4565b905092915050565b600060208284031215611c6157611c60611304565b5b6000611c6f84828501611357565b91505092915050565b7f54686520646561646c696e652073686f756c642062652061206461746520696e60008201527f2074686520667574757265000000000000000000000000000000000000000000602082015250565b6000611cd4602b8361184a565b9150611cdf82611c78565b604082019050919050565b60006020820190508181036000830152611d0381611cc7565b9050919050565b7f4e487b7100000000000000000000000000000000000000000000000000000000600052602260045260246000fd5b60006002820490506001821680611d5157607f821691505b602082108103611d6457611d63611d0a565b5b50919050565b60008190508160005260206000209050919050565b60006020601f8301049050919050565b600082821b905092915050565b600060088302611dcc7fffffffffffffffffffffffffffffffffffffffffffffffffffffffffffffffff82611d8f565b611dd68683611d8f565b95508019841693508086168417925050509392505050565b6000819050919050565b6000611e13611e0e611e09846114b2565b611dee565b6114b2565b9050919050565b6000819050919050565b611e2d83611df8565b611e41611e3982611e1a565b848454611d9c565b825550505050565b600090565b611e56611e49565b611e61818484611e24565b505050565b5b81811015611e8557611e7a600082611e4e565b600181019050611e67565b5050565b601f821115611eca57611e9b81611d6a565b611ea484611d7f565b81016020851015611eb3578190505b611ec7611ebf85611d7f565b830182611e66565b50505b505050565b600082821c905092915050565b6000611eed60001984600802611ecf565b1980831691505092915050565b6000611f068383611edc565b9150826002028217905092915050565b611f1f8261183f565b67ffffffffffffffff811115611f3857611f37611387565b5b611f428254611d39565b611f4d828285611e89565b600060209050601f831160018114611f805760008415611f6e578287015190505b611f788582611efa565b865550611fe0565b601f198416611f8e86611d6a565b60005b82811015611fb657848901518255600182019150602085019450602081019050611f91565b86831015611fd35784890151611fcf601f891682611edc565b8355505b6001600288020188555050505b505050505050565b7f4e487b7100000000000000000000000000000000000000000000000000000000600052601160045260246000fd5b6000612022826114b2565b91507fffffffffffffffffffffffffffffffffffffffffffffffffffffffffffffffff820361205457612053611fe8565b5b600182019050919050565b600061206a826114b2565b9150612075836114b2565b925082820390508181111561208d5761208c611fe8565b5b92915050565b60006080820190506120a8600083018761159b565b6120b56020830186611830565b6120c2604083018561159b565b6120cf606083018461159b565b95945050505050565b7f4f6e6c79206f776e65722063616e207570646174650000000000000000000000600082015250565b600061210e60158361184a565b9150612119826120d8565b602082019050919050565b6000602082019050818103600083015261213d81612101565b9050919050565b7f43616e6e6f742075706461746520616674657220646f6e6174696f6e73000000600082015250565b600061217a601d8361184a565b915061218582612144565b602082019050919050565b600060208201905081810360008301526121a98161216d565b9050919050565b7f43616d706169676e20646561646c696e65206861732070617373656400000000600082015250565b60006121e6601c8361184a565b91506121f1826121b0565b602082019050919050565b60006020820190508181036000830152612215816121d9565b9050919050565b7f43616d706169676e20697320616c726561647920636f6d706c65746564000000600082015250565b6000612252601d8361184a565b915061225d8261221c565b602082019050919050565b6000602082019050818103600083015261228181612245565b9050919050565b6000612293826114b2565b915061229e836114b2565b92508282019050808211156122b6576122b5611fe8565b5b92915050565b600081905092915050565b50565b60006122d76000836122bc565b91506122e2826122c7565b600082019050919050565b60006122f8826122ca565b9150819050919050565b7f5472616e7366657220746f2063616d706169676e206f776e6572206661696c6560008201527f6400000000000000000000000000000000000000000000000000000000000000602082015250565b600061235e60218361184a565b915061236982612302565b604082019050919050565b6000602082019050818103600083015261238d81612351565b9050919050565b60006060820190506123a9600083018661159b565b6123b66020830185611830565b6123c3604083018461159b565b949350505050565b7f43616d706169676e206973207374696c6c206163746976650000000000000000600082015250565b600061240160188361184a565b915061240c826123cb565b602082019050919050565b60006020820190508181036000830152612430816123f4565b9050919050565b7f43616d706169676e207265616368656420746865207461726765740000000000600082015250565b600061246d601b8361184a565b915061247882612437565b602082019050919050565b6000602082019050818103600083015261249c81612460565b9050919050565b7f4e487b7100000000000000000000000000000000000000000000000000000000600052603260045260246000fd5b7f526566756e64206661696c656400000000000000000000000000000000000000600082015250565b6000612508600d8361184a565b9150612513826124d2565b602082019050919050565b60006020820190508181036000830152612537816124fb565b9050919050565b60006060820190506125536000830186611830565b612560602083018561159b565b61256d604083018461159b565b94935050505056fea26469706673582212201a3b2a7e26d39245dc51c7d11603abf66294173daa603014696721b4b67b61e464736f6c63430008120033",
  "linkReferences": {},
  "deployedLinkReferences": {}
}